:100000006FC076C075C074C073C072C071C070C05C
:100010006FC06EC06DC06CC06BC06AC069C068C084
:1000200067C066C065C04E005900600066006D0084
:10003000710079008100890091009900A100A90058
:10004000B100B900C100C900CE00D500DA00457288
:10005000726F722032303134004173626163680024
:10006000576F646B6100576879736B690052756DE7
:10007000002D2D2D2D2D2D2D002D2D2D2D2D2D2D0A
:10008000002D2D2D2D2D2D2D002D2D2D2D2D2D2DFA
:10009000002D2D2D2D2D2D2D002D2D2D2D2D2D2DEA
:1000A000002D2D2D2D2D2D2D002D2D2D2D2D2D2DDA
:1000B000002D2D2D2D2D2D2D002D2D2D2D2D2D2DCA
:1000C000002D2D2D2D2D2D2D00436F6C61004F2DFA
:1000D000536166740042756C6C004C656D6F6D0009
:1000E00011241FBECFE5D4E0DEBFCDBFF4D059C18F
:1000F00087CF959A85E38A95F1F700009598089542
:1001000092B3907F92BB92B382958F70982B92BBE3
:10011000F0DF08951F93182F949AF2DF812F8295B4
:10012000807FEEDF8AE78A95F1F700C01F9108957E
:100130001F93182F9498E4DF812F8295807FE0DF52
:1001400080E78A95F1F71F91089581E0F1DF8FE94B
:100150009FE00197F1F700C00000089581B38F631D
:1001600081BB82B3807C82BB8FE295E70197F1F778
:1001700000C0000080E3C4DF8FE097E20197F1F751
:1001800000C00000B6DF8FEC97E00197F1F700C0E8
:100190000000AFDF8FEC97E00197F1F700C000009F
:1001A00080E2AEDF8FE097E20197F1F700C0000038
:1001B00088E2BEDF8CE0BCDF86E0BADFC6DF0895F0
:1001C00082E0B6DF8FE99FE00197F1F700C0000001
:1001D0000895623061F0633018F4613071F405C045
:1001E000633039F0643049F406C0805805C080544B
:1001F00003C0805701C080539BDF0895CF93DF93E6
:10020000EC018881882329F0219684DF8991882355
:10021000E1F7DF91CF910895EF92FF920F931F9333
:10022000CF93DF93062F172F880F880F880F8064D6
:100230007FDFE02EE7017E01F12EE70118E08991D2
:1002400069DF1150E1F7DF91CF911F910F91FF907E
:10025000EF9008950F931F93DF93CF93CDB7DEB741
:1002600064970FB6F894DEBF0FBECDBF8E010F5F4F
:100270001F4FB80142E050E051D0C801BFDF649683
:100280000FB6F894DEBF0FBECDBFCF91DF911F91A7
:100290000F9108950F931F93DF93CF93CDB7DEB7E0
:1002A00064970FB6F894DEBF0FBECDBF90E08E010D
:1002B0000F5F1F4FB8014AE050E030D0C8019EDF09
:1002C00064960FB6F894DEBF0FBECDBFCF91DF911D
:1002D0001F910F9108950F931F93DF93CF93CDB785
:1002E000DEB7A8970FB6F894DEBF0FBECDBF36DFDE
:1002F0002CDFE8E4F0E0259134918E010F5F1F4F71
:10030000C801622F732F03D0C80178DFFFCFFB0134
:10031000DC0105900D920020E1F70895FB019F019B
:10032000E8944230BCF04532ACF44A3029F497FBF3
:100330001EF4909581959F4F642F77271ED0805D86
:100340008A330CF0895D8193CB010097A9F716F4ED
:100350005DE251931082C90100C0DC01FC01672FEE
:1003600071917723E1F7329704C07C916D9370838C
:100370006291AE17BF07C8F30895AA1BBB1B51E1DA
:1003800007C0AA1FBB1FA617B70710F0A61BB70B05
:10039000881F991F5A95A9F780959095BC01CD01AA
:0603A0000895F894FFCF60
:00000001FF
