:1000000012C021C020C01FC01EC01DC01CC01BC00C
:100010001AC024C018C017C016C015C014C013C021
:1000200012C011C010C011241FBECFE5D4E0DEBF46
:10003000CDBF10E0A0E6B0E001C01D92A436B1072C
:10004000E1F702D045C0DCCF8FEF84BB15BA84E066
:1000500083BF89B7816089BF7894FFCF1F920F92C9
:100060000FB60F9211248F939F938091620090910D
:100070006300019690936300809362008091620018
:10008000909163008C30910569F410926300109296
:1000900062008091600090916100019690936100F0
:1000A0008093600080916000909161008A3091059A
:1000B00041F495B381E0892785BB109261001092CD
:1000C00060009F918F910F900FBE0F901F90189519
:0400D000F894FFCFD2
:00000001FF
