:1000000012C02CC02BC044C029C028C027C026C0A5
:1000100025C086C223C022C021C020C01FC01EC070
:100020001DC01CC01BC011241FBECFE5D4E0DEBF25
:10003000CDBF10E0A0E6B0E0E6E8F9E002C0059030
:100040000D92AE3FB107D9F721E0AEEFB0E001C0AD
:100050001D92AD30B207E1F7D4D193C4D1CF8DE773
:1000600083BD88E085BD89B7806889BF789408958D
:1000700085B5826085BD089585B58D7F85BD10925B
:10008000FF001092000110920101109202010895E8
:100090001F920F920FB60F9211244F935F936F939D
:1000A0007F938F939F93AF93BF9380916000815014
:1000B00019F08093600016C088E080936000809102
:1000C000FF0090910001A0910101B0910201019601
:1000D000A11DB11D8093FF0090930001A093010129
:1000E000B093020140910301509104018091FF00FF
:1000F00090910001A0910101B091020160E070E0D7
:10010000481759076A077B0719F481E08093FE00BE
:10011000BF91AF919F918F917F916F915F914F911F
:100120000F900FBE0F901F9018951F93CF93DF93E2
:10013000C82F62E080E08FD2C530E0F0D0E085E0EB
:100140002BD2DF5FC550C530D0F78C2F25D28D2F35
:100150008F5FC4E1D0E0C81BD1091C161D0674F0E6
:100160000FC080E019D21F5F812F90E08C179D0790
:10017000C4F306C08C2F10D2C3E1D0E010E0F1CF61
:10018000DF91CF911F910895CF93DF93CDB7DEB765
:10019000E0970FB6F894DEBF0FBECDBF1886198268
:1001A0008FE18F838A831B821C821D821E82188AA4
:1001B00019868F878A8790E19B879C879D879E877A
:1001C000188E198A8F8B8A8B98E19B8B9C8B9D8BC9
:1001D0009E8B18A2198E8F8F8A8F9CE19B8F9C8F8C
:1001E0009D8F9E8F18A619A28FA38AA39EE19BA321
:1001F0009CA39DA39EA318AA19A68FA78AA78BA725
:100200008CA78DA78EA7BE016F5F7F4F80E045D280
:10021000BE01675F7F4F81E040D2BE016F5E7F4FBE
:1002200082E03BD2BE01675E7F4F83E036D2BE01E3
:100230006F5D7F4F84E031D2BE01675D7F4F85E007
:100240002CD2E0960FB6F894DEBF0FBECDBFDF9183
:10025000CF9108958F929F92AF92BF92CF92DF92EB
:10026000EF92FF92CF934B01880E991EA12CB12CD7
:100270009093040180930301C501B40124E630E0AA
:1002800040E050E019D369017A01A1D1DBD181E6C8
:1002900090E0F5D161E089E0DED181EE7DD1AB98CF
:1002A000E7DEC0E0EE24FF242AC08091FE00882310
:1002B00021F01092FE00AB9AAA986091FF00709115
:1002C00000018091010190910201A7019601F4D2F1
:1002D0008C2F90E0A0E0B0E0281739074A075B07B1
:1002E00071F06091FF007091000180910101909187
:1002F0000201A7019601E0D2C22F822F16DF809162
:10030000FF0090910001A0910101B09102018815B8
:100310009905AA05BB0548F284E607DFAA9AACDE78
:100320002FEF8DE292E2215080409040E1F700C033
:1003300000004DD187D182E790E0A1D12FEF88E076
:100340009DE3215080409040E1F700C00000CF9134
:10035000FF90EF90DF90CF90BF90AF909F908F90E5
:1003600008951816190644F4EFECF7E03197F1F709
:1003700000C000000197C1F7089560E070E0F0E070
:1003800086B3809305019B018F2FE09105014E2FCD
:1003900050E0022E02C0559547950A94E2F740FFBF
:1003A00018C040910601E4274E2F50E0022E02C0F3
:1003B000559547950A94E2F740FF0BC0822F8F5F57
:1003C0004FEF55EA9EE0415050409040E1F700C0A9
:1003D00000002F5F3F4F25303105B9F690910501A0
:1003E00090930601882361F2089568EB7BE088EE24
:1003F00093E030DF089584E083BF89B7816089BFCF
:10040000089517BA8FEF88BB81BB12BAE9D0F3DF2A
:10041000DED025DEB9DE789475D180ED97E0A1DFDE
:10042000A12CB12CC0E0D0E00F2EF8E88F2EF3E124
:100430009F2EF02D0F2EF4EA2F2EF5E03F2EF02DFB
:100440006CD19BDF8530E1F38AD197DF8330A9F04F
:1004500028F4813041F08230C9F40AC0843091F030
:100460008530A1F4EDCF81E080930A01E1010EC057
:1004700082E080930A01E40109C083E080930A01CD
:10048000E40104C084E080930A01E40151D175DFE6
:100490008330D1F028F4813041F08230F1F40FC084
:1004A0008430B9F08530C9F4CBCF80E18093090165
:1004B0000F2EFBE2AF2EF2E0BF2EF02D0EC081E139
:1004C00080930901540109C082E18093090154011C
:1004D00004C083E180930901540158D180ED97E075
:1004E00040DF80E05ED165D180ED97E03ADFB50175
:1004F00080E090E0A4D12B013C01BE0180E090E0BF
:100500009ED1AB01BC010F2EC12CD12CF0E2EF2EFD
:10051000F2E4FF2EF02D9301820180E066DF90CFA0
:100520001F920F920FB60F9211248F939F93809179
:100530000B0190910C01019690930C0180930B019B
:1005400080910B0190910C010C9771F410920C01A9
:1005500010920B0180910701909108018C599F4FD7
:1005600090930801809307019F918F910F900FBE88
:100570000F901F901895959A85E38A95F1F70000E2
:100580009598089592B3907F92BB92B382958F70A5
:10059000982B92BBF0DF0895CF93C82F949AF2DF87
:1005A0008C2F8295807FEEDF8AE78A95F1F700C075
:1005B000CF910895CF93C82F9498E4DF8C2F829524
:1005C000807FE0DF80E78A95F1F7CF91089581E0A1
:1005D000F1DF8FE99FE00197F1F700C00000089577
:1005E00081B38F6381BB82B3807C82BB8FE295E74E
:1005F0000197F1F700C0000080E3C4DF8FE097E2CD
:100600000197F1F700C00000B6DF8FEC97E001978B
:10061000F1F700C00000AFDF8FEC97E00197F1F732
:1006200000C0000080E2AEDF8FE097E20197F1F7B3
:1006300000C0000088E2BEDF8CE0BCDF86E0BADFED
:10064000C6DF089582E0B6DF8FE99FE00197F1F7FA
:1006500000C000000895623059F018F4613071F460
:1006600005C0633039F0643049F406C0805805C0D5
:10067000805403C0805701C080539CDF0895CF93FE
:10068000DF93EC018881882329F0219685DF899109
:100690008111FCCFDF91CF9108950F931F93CF93DA
:1006A000DF93062F172F28E0829FC001112480645A
:1006B00081DFC02FD12F10E089916EDF1F5F1830CE
:1006C000D9F7DF91CF911F910F910895CF93DF93C9
:1006D000CDB7DEB764970FB6F894DEBF0FBECDBFBF
:1006E00042E050E0BE016F5F7F4F08D1CE0101961E
:1006F000C6DF64960FB6F894DEBF0FBECDBFDF91A4
:10070000CF91089564DF8FE790E0B9DF62E080E089
:10071000A2DF80E990E0B3DF089559DF80EA90E03E
:10072000AEDF61E08CE097DF88EA90E0A8DF089513
:100730004EDF8EEA90E0A3DF61E08AE08CDF83EB9E
:1007400090E09DDF62E080E086DF8AEB90E097DF5B
:1007500062E08AE080DF8FEB90E091DF089537DF81
:1007600085EC90E08CDF61E08AE075DF8CEC90E056
:1007700086DF62E080E06FDF82ED90E080DF62E0A4
:100780008AE069DF89ED90E07ADF089520DF8DED62
:1007900090E075DF62E080E05EDF8FEE90E06FDF7B
:1007A0000895CF93C82F13DF8C2F90E08FDFCF9168
:1007B00008950DDF80910901803119F48EEA90E0EF
:1007C0005EDF80910901813119F487EF90E057DFF6
:1007D00080910901823119F48AEB90E050DF809119
:1007E0000901833119F48FEB90E049DF80910A0110
:1007F000813031F462E080E02EDF85EC90E03FDF75
:1008000080910A01823031F462E080E024DF8CECD8
:1008100090E035DF80910A01833031F462E080E0BE
:100820001ADF82ED90E02BDF80910A01843031F4F1
:1008300062E080E010DF89ED90E021DF0895E89428
:1008400009C097FB3EF490958095709561957F4F18
:100850008F4F9F4F9923A9F0F92F96E9BB279395C6
:10086000F695879577956795B795F111F8CFFAF4D6
:10087000BB0F11F460FF1BC06F5F7F4F8F4F9F4F07
:1008800016C0882311F096E911C0772321F09EE865
:10089000872F762F05C0662371F096E8862F70E0CB
:1008A00060E02AF09A95660F771F881FDAF7880FA5
:1008B0009695879597F90895A1E21A2EAA1BBB1B5E
:1008C000FD010DC0AA1FBB1FEE1FFF1FA217B3071C
:1008D000E407F50720F0A21BB30BE40BF50B661F32
:1008E000771F881F991F1A9469F7609570958095F6
:1008F00090959B01AC01BD01CF010895FB019F01C3
:10090000E8944230BCF04532ACF44A3029F497FB0D
:100910001EF4909581959F4F642F77271ED0805DA0
:100920008A330CF0895D8193CB010097A9F716F407
:100930005DE251931082C90100C0DC01FC01672F08
:1009400071917723E1F7329704C07C916D937083A6
:100950006291AE17BF07C8F30895AA1BBB1B51E1F4
:1009600007C0AA1FBB1FA617B70710F0A61BB70B1F
:10097000881F991F5A95A9F780959095BC01CD01C4
:060980000895F894FFCF7A
:10098600084D69736368656E206C617566742E2EFA
:100996002E00477574656E20447572737421004489
:1009A6006572204D61736368696E6520322E300072
:1009B60053617566206E656920616C7465722100ED
:1009C6004D69736368656E00536574757000436F97
:1009D6006C61004F2D536166740042756C6C004C5F
:1009E600656D6F6E0041736261636800576F646B7B
:1009F6006100576869736B790052756D004D6973B4
:100A06006368756E67206D697420506F7469004560
:0E0A1600696E67616265004F2D736166740042
:00000001FF
