:1000000012C02CC02BC02AC029C028C027C026C0BF
:1000100025C0E1C123C022C021C020C01FC01EC016
:100020001DC01CC01BC011241FBECFE5D4E0DEBF25
:10003000CDBF10E0A0E6B0E0E2EDFCE002C005902C
:100040000D92AE3FB107D9F711E0AEEFB0E001C0BD
:100050001D92A630B107E1F706D139C6D1CF1816E7
:10006000190654F4EFECF7E03197F1F700C0000007
:10007000019718161906B4F308956F927F929F9214
:10008000AF92BF92CF92DF92EF92FF920F931F93A6
:10009000CF93DF9364E670E0D7D5F62EE72EF3D149
:1000A0002DD280E690E048D289E061E030D281EE46
:1000B000CFD180E062E02BD200E0992493940F2E00
:1000C000FFE2AF2EF0E0BF2EF02DC501DA2CC92ED5
:1000D00014C0802F62E01BD2812FBAD16D2CE301B6
:1000E0003E017C2CE3018F2D9E2DF50109951F5FAC
:1000F000163079F70F5F043111F0192DEACF8FEF29
:1001000099E6A8E181509040A040E1F700C00000CE
:1001100080E062E0FCD110E080E29AD11F5F1031F4
:10012000D9F7B1D1EBD181E790E006D284EC99E028
:10013000FE010995DF91CF911F910F91FF90EF90F4
:10014000DF90CF90BF90AF909F907F906F90089579
:10015000E0E0F0E0A0E086B38093FF009F018A2FEB
:100160004091FF0050E0BA01022E02C075956795DC
:100170000A94E2F760FF18C06091FE0070E0462725
:100180005727022E02C0559547950A94E2F740FF83
:100190000BC0822F8F5F4FEF55EA6EE04150504009
:1001A0006040E1F700C000002F5F3F4F2530310570
:1001B000B9F69091FF009093FE00882361F20895B4
:1001C0004F925F926F927F928F929F92AF92BF9267
:1001D000CF92DF92EF92FF920F931F932A013B0180
:1001E0004801590160E070E088EC92E4A7019601B3
:1001F00041D3A5019401C5D4862E172F082FB92EFF
:10020000C701B60120E030E048EC52E498D3A301E6
:100210009201B7D46B017C01682D712F802F9B2D2B
:1002200020E030E048EC52E48AD39B01AC01C701E6
:10023000B60121D3ECD3DC01CB011FDF1F910F915D
:10024000FF90EF90DF90CF90BF90AF909F908F90F6
:100250007F906F905F904F90089584E083BF89B73F
:10026000816089BF08952F923F924F925F926F9263
:100270007F928F929F92AF92BF92CF92DF92EF9236
:10028000FF920F931F93CF93DF9317BA8FEF88BB23
:1002900081BB12BA01D1E1DFF6D04DD27894B8D14A
:1002A00080ED97E0DCDEC0E0D0E0AA24BB240F2E76
:1002B000F8E88F2EF3E19F2EF02D0F2EF2E15F2E46
:1002C000F02D0F2EF3E14F2EF02D3324689434F8E7
:1002D0000F2EFBE26F2EF2E07F2EF02D0F2EF1E1BC
:1002E0002F2EF02DA0D134DF8530E1F3A7D130DF00
:1002F0008330A1F0843028F4813041F08230A9F4B9
:1003000009C0843079F0853081F4ECCF309202015D
:10031000E3010BC020920201E40107C050920201E8
:10032000E40103C040920201E4019FD111DF833058
:10033000D9F0843028F4813041F08230F1F40FC0DC
:100340008430B9F08530C9F4CDCF21E0209303018A
:100350000F2EF4EAAF2EF5E0BF2EF02D0EC082E096
:1003600080930301540109C023E020930301540149
:1003700004C084E08093030154018ED180ED97E0A6
:100380006EDE80E094D130D2109201011092000113
:10039000809100019091010127E0803D9207C0F318
:1003A000B50180E090E05FD36B017C01BE0180E08D
:1003B00090E059D38B019C0180E0B701A6010F2E7C
:1003C000F0E0CF2EF0E0DF2EF0E2EF2EF2E4FF2E91
:1003D000F02DF6DE87CF1F920F920FB60F921124E9
:1003E0008F939F93809104019091050101969093C2
:1003F00005018093040180910401909105018C30E6
:10040000910571F410920501109204018091000190
:10041000909101018C599F4F9093010180930001AD
:100420009F918F910F900FBE0F901F901895959AE6
:1004300085E38A95F1F700009598089592B3907F2F
:1004400092BB92B382958F70982B92BBF0DF089588
:100450001F93182F949AF2DF812F8295807FEEDF11
:100460008AE78A95F1F700C01F9108951F93182F0E
:100470009498E4DF812F8295807FE0DF80E78A9582
:10048000F1F71F91089581E0F1DF8FE99FE0019777
:10049000F1F700C00000089581B38F6381BB82B380
:1004A000807C82BB8FE295E70197F1F700C00000E6
:1004B00080E3C4DF8FE097E20197F1F700C000000E
:1004C000B6DF8FEC97E00197F1F700C00000AFDFD7
:1004D0008FEC97E00197F1F700C0000080E2AEDFFB
:1004E0008FE097E20197F1F700C0000088E2BEDFDD
:1004F0008CE0BCDF86E0BADFC6DF089582E0B6DFBD
:100500008FE99FE00197F1F700C000000895623085
:1005100061F0633018F4613071F405C0633039F074
:10052000643049F406C0805805C0805403C0805729
:1005300001C080539BDF0895CF93DF93EC01888146
:10054000882329F0219684DF89918823E1F7DF91C0
:10055000CF910895EF92FF920F931F93CF93DF9364
:10056000062F172F880F880F880F80647FDFE02EFB
:10057000E7017E01F12EE70118E0899169DF115052
:10058000E1F7DF91CF911F910F91FF90EF900895C8
:100590000F931F93DF93CF93CDB7DEB764970FB65A
:1005A000F894DEBF0FBECDBF8E010F5F1F4FB801A5
:1005B00042E050E05DD3C801BFDF64960FB6F89407
:1005C000DEBF0FBECDBFCF91DF911F910F91089578
:1005D0000F931F93DF93CF93CDB7DEB764970FB61A
:1005E000F894DEBF0FBECDBF8E010F5F1F4FB80165
:1005F0004AE050E03DD3C8019FDF64960FB6F894FF
:10060000DEBF0FBECDBFCF91DF911F910F91089537
:100610003ADF8EE790E090DF80E062E078DF8FE8FD
:1006200090E08ADF08952FDF8FE990E085DF8CE08E
:1006300061E06DDF87EA90E07FDF089524DF8DEAD7
:1006400090E07ADF8AE061E062DF82EB90E074DFC5
:1006500080E062E05CDF89EB90E06EDF8AE062E0E0
:1006600056DF8EEB90E068DF08950DDF84EC90E0BC
:1006700063DF8AE061E04BDF8BEC90E05DDF80E0E0
:1006800062E045DF81ED90E057DF8AE062E03FDF26
:1006900088ED90E051DF0895F6DE8CED90E04CDFC0
:1006A00080E062E034DF8EEE90E046DF08951F9335
:1006B000182FE9DE812F90E06BDF1F9108950F93D3
:1006C0001F93082FE0DE102F00FF03C08DEA90E09B
:1006D00033DF11FF03C086EF90E02EDF12FF03C06F
:1006E00089EB90E029DF13FF03C08EEB90E024DF5D
:1006F00014FF06C080E062E00ADF84EC90E01CDFBB
:1007000015FF06C080E062E002DF8BEC90E014DFB2
:1007100016FF06C080E062E0FADE81ED90E00CDFBB
:10072000002334F480E062E0F2DE88ED90E004DF44
:100730001F910F910895DF93CF93CDB7DEB7A897A0
:100740000FB6F894DEBF0FBECDBF1886198280E1C8
:100750008A838B838C838D838E838F83188A1986FB
:1007600088E18A878B878C878D878E878F87188E05
:10077000198A8CE18A8B8B8B8C8B8D8B8E8B8F8BDC
:1007800018A2198E8EE18A8F8B8F8C8F8D8F8E8F12
:100790008F8F18A619A28FE18AA38BA38CA38DA398
:1007A0008EA38FA381E0BE016F5F7F4FD3DE82E017
:1007B000BE01675F7F4FCEDE83E0BE016F5E7F4F7D
:1007C000C9DE84E0BE01675E7F4FC4DE85E0BE0106
:1007D0006F5D7F4FBFDEA8960FB6F894DEBF0FBEE9
:1007E000CDBFCF91DF9108954EDE8091020180311F
:1007F00019F48DEA90E0A0DE80910201813119F4B4
:1008000086EF90E099DE80910201823119F489EB44
:1008100090E092DE80910201833119F48EEB90E03A
:100820008BDE80910301813031F480E062E06FDE85
:1008300084EC90E081DE80910301823031F480E02D
:1008400062E065DE8BEC90E077DE8091030183301F
:1008500031F480E062E05BDE81ED90E06DDE80915E
:100860000301843031F480E062E051DE88ED90E0F5
:1008700063DE08955058BB27AA270ED048C139D14E
:1008800030F03ED120F031F49F3F11F41EF42EC120
:100890000EF4E095E7FB24C1E92F4AD180F3BA17A3
:1008A000620773078407950718F071F49EF562C11B
:1008B0000EF4E0950B2EBA2FA02D0B01B90190017B
:1008C0000C01CA01A0011124FF27591B99F0593FBF
:1008D00050F4503E68F11A16F040A22F232F342F07
:1008E0004427585FF3CF469537952795A795F04055
:1008F0005395C9F77EF41F16BA0B620B730B840B6A
:10090000BAF09150A1F0FF0FBB1F661F771F881F21
:10091000C2F70EC0BA0F621F731F841F48F4879579
:1009200077956795B795F7959E3F08F0B3CF939568
:10093000880F08F09927EE0F9795879508950CD0AA
:10094000E6C0DED040F0D5D030F021F45F3F19F0A2
:10095000C7C0511110C1CAC0EBD098F39923C9F395
:100960005523B1F3951B550BBB27AA2762177307B5
:10097000840738F09F5F5F4F220F331F441FAA1F69
:10098000A9F333D00E2E3AF0E0E830D09150504029
:10099000E695001CCAF729D0FE2F27D0660F771FD7
:1009A000881FBB1F261737074807AB07B0E809F0B9
:1009B000BB0B802DBF01FF2793585F4F2AF09E3F4E
:1009C000510568F08DC0D7C05F3FECF3983EDCF373
:1009D000869577956795B795F7959F5FC9F7880FC7
:1009E000911D9695879597F90895E1E0660F771F19
:1009F000881FBB1F621773078407BA0720F0621BAA
:100A0000730B840BBA0BEE1F88F7E095089598D00E
:100A100088F09F5790F0B92F9927B751A0F0D1F0E7
:100A2000660F771F881F991F1AF0BA95C9F712C071
:100A3000B13081F09FD0B1E008959CC0672F782F2E
:100A40008827B85F39F0B93FCCF3869577956795DD
:100A5000B395D9F73EF490958095709561957F4F49
:100A60008F4F9F4F0895E89409C097FB3EF49095EF
:100A70008095709561957F4F8F4F9F4F9923A9F077
:100A8000F92F96E9BB279395F69587957795679506
:100A9000B795F111F8CFFAF4BB0F11F460FF1BC04A
:100AA0006F5F7F4F8F4F9F4F16C0882311F096E9DD
:100AB00011C0772321F09EE8872F762F05C066238B
:100AC00071F096E8862F70E060E02AF09A95660F44
:100AD000771F881FDAF7880F9695879597F90895FD
:100AE00097F99F6780E870E060E008959FEF80ECE1
:100AF000089500240A941616170618060906089584
:100B000000240A9412161306140605060895092EE9
:100B10000394000C11F4882352F0BB0F40F4BF2B58
:100B200011F460FF04C06F5F7F4F8F4F9F4F089598
:100B300057FD9058440F551F59F05F3F71F047958E
:100B4000880F97FB991F61F09F3F79F08795089573
:100B5000121613061406551FF2CF4695F1DF08C092
:100B6000161617061806991FF1CF869571056105AF
:100B700008940895E894BB2766277727CB0197F957
:100B800008950BD0C4CFB5DF28F0BADF18F0952355
:100B900009F0A6CFABCF1124EECFCADFA0F3959F0B
:100BA000D1F3950F50E0551F629FF001729FBB2754
:100BB000F00DB11D639FAA27F00DB11DAA1F649F00
:100BC0006627B00DA11D661F829F2227B00DA11DB3
:100BD000621F739FB00DA11D621F839FA00D611D39
:100BE000221F749F3327A00D611D231F849F600D5A
:100BF000211D822F762F6A2F11249F5750408AF093
:100C0000E1F088234AF0EE0FFF1FBB1F661F771F1E
:100C1000881F91505040A9F79E3F510570F060CF5A
:100C2000AACF5F3FECF3983EDCF386957795679506
:100C3000B795F795E7959F5FC1F7FE2B880F911D3C
:100C40009695879597F90895AA1BBB1B51E107C09C
:100C5000AA1FBB1FA617B70710F0A61BB70B881F4C
:100C6000991F5A95A9F780959095BC01CD010895DB
:100C7000FB019F01E8944230BCF04532ACF44A30AD
:100C800029F497FB1EF4909581959F4F642F772749
:100C9000DBDF805D8A330CF0895D8193CB010097A7
:100CA000A9F716F45DE251931082C90100C0DC017E
:100CB000FC01672F71917723E1F7329704C07C9193
:100CC0006D9370836291AE17BF07C8F30895F894CF
:020CD000FFCF54
:100CD2004D69736368656E206C617566742E2E2E85
:100CE20000477574656E2044757273742100446503
:100CF20072204D61736368696E6520322E30005335
:100D0200617566206E656920616C74657221004DA3
:100D120069736368656E00536574757000436F6C28
:100D220061004F2D536166740042756C6C004C6516
:100D32006D6F6E0041736261636800576F646B612F
:100D420000576869736B790052756D004D69736362
:100D520068756E67206D697420506F74690045690B
:0E0D62006E67616265004F2D7361667400005C
:00000001FF
