:1000000012C02CC02BC044C029C028C027C026C0A5
:1000100025C083C223C022C021C020C01FC01EC073
:100020001DC01CC01BC011241FBECFE5D4E0DEBF25
:10003000CDBF11E0A0E6B0E0E0E8F9E002C0059035
:100040000D92A230B107D9F721E0A2E0B1E001C0E2
:100050001D92A131B207E1F7D1D190C4D1CF8DE784
:1000600083BD88E085BD89B7806889BF789408958D
:1000700085B5826085BD089585B58D7F85BD10925B
:1000800003011092040110920501109206010895D7
:100090001F920F920FB60F9211244F935F936F939D
:1000A0007F938F939F93AF93BF9380916000815014
:1000B00019F08093600016C088E080936000809102
:1000C000030190910401A0910501B09106010196F0
:1000D000A11DB11D8093030190930401A09305011C
:1000E000B0930601409107015091080180910301EE
:1000F00090910401A0910501B091060160E070E0CB
:10010000481759076A077B0719F481E080930201B9
:10011000BF91AF919F918F917F916F915F914F911F
:100120000F900FBE0F901F9018951F93CF93DF93E2
:10013000C82F62E080E08CD2C530E0F0D0E085E0EE
:1001400028D2DF5FC550C530D0F78C2F22D28D2F3B
:100150008F5FC4E1D0E0C81BD1091C161D0674F0E6
:100160000FC080E016D21F5F812F90E08C179D0793
:10017000C4F306C08C2F0DD2C3E1D0E010E0F1CF64
:10018000DF91CF911F910895CF93DF93CDB7DEB765
:10019000E0970FB6F894DEBF0FBECDBF1886198268
:1001A0008FE18F838A831B821C821D821E82188AA4
:1001B00019868F878A8790E19B879C879D879E877A
:1001C000188E198A8F8B8A8B98E19B8B9C8B9D8BC9
:1001D0009E8B18A2198E8F8F8A8F9CE19B8F9C8F8C
:1001E0009D8F9E8F18A619A28FA38AA39EE19BA321
:1001F0009CA39DA39EA318AA19A68FA78AA78BA725
:100200008CA78DA78EA7BE016F5F7F4F80E042D283
:10021000BE01675F7F4F81E03DD2BE016F5E7F4FC1
:1002200082E038D2BE01675E7F4F83E033D2BE01E9
:100230006F5D7F4F84E02ED2BE01675D7F4F85E00A
:1002400029D2E0960FB6F894DEBF0FBECDBFDF9186
:10025000CF9108958F929F92AF92BF92CF92DF92EB
:10026000EF92FF92CF934B01880E991EA12CB12CD7
:100270009093080180930701C501B40124E630E0A2
:1002800040E050E016D369017A019ED1D8D181E6D1
:1002900090E0F2D1EDDEC0E0EE24FF242EC080918C
:1002A0000201882341F01092020161E089E0D0D17F
:1002B0008EE690E0E1D1609103017091040180919C
:1002C000050190910601A7019601F3D28C2F90E0D1
:1002D000A0E0B0E0281739074A075B0771F060918A
:1002E0000301709104018091050190910601A7011D
:1002F0009601DFD2C22F822F18DF809103019091E7
:100300000401A0910501B091060188159905AA057F
:10031000BB0528F284E609DFAFDE2FEF8DE292E223
:10032000215080409040E1F700C000004DD187D1BE
:1003300086E790E0A1D12FEF88E09DE32150804037
:100340009040E1F700C00000CF91FF90EF90DF9068
:10035000CF90BF90AF909F908F9008951816190678
:1003600044F4EFECF7E03197F1F700C0000001979B
:10037000C1F7089560E070E0F0E086B38093090172
:100380009B018F2FE09109014E2F50E0022E02C0F9
:10039000559547950A94E2F740FF18C040910A012D
:1003A000E4274E2F50E0022E02C0559547950A943F
:1003B000E2F740FF0BC0822F8F5F4FEF55EA9EE0C0
:1003C000415050409040E1F700C000002F5F3F4F88
:1003D00025303105B9F69091090190930A018823DF
:1003E00061F2089560EA7FE080ED97E033DF0895E1
:1003F00084E083BF89B7816089BF089517BA8FEF02
:1004000088BB81BB12BAE9D0F3DFDED028DEBCDEC8
:10041000789475D180ED97E0A1DFA12CB12CC0E0DC
:10042000D0E00F2EF8E88F2EF3E19F2EF02D0F2E47
:10043000F4EA2F2EF5E03F2EF02D6CD19BDF8530B6
:10044000E1F38AD197DF8330A9F028F4813041F0BD
:100450008230C9F40AC0843091F08530A1F4EDCF28
:1004600081E080930E01E1010EC082E080930E01D5
:10047000E40109C083E080930E01E40104C084E03C
:1004800080930E01E40151D175DF8330D1F028F45F
:10049000813041F08230F1F40FC08430B9F0853002
:1004A000C9F4CBCF80E180930D010F2EFBE2AF2E7C
:1004B000F2E0BF2EF02D0EC081E180930D015401BA
:1004C00009C082E180930D01540104C083E180934F
:1004D0000D01540158D180ED97E040DF80E05ED1FE
:1004E00065D180ED97E03ADFB50180E090E0A4D1DE
:1004F0002B013C01BE0180E090E09ED1AB01BC012C
:100500000F2EC12CD12CF0E2EF2EF2E4FF2EF02DB5
:100510009301820180E066DF90CF1F920F920FB6A9
:100520000F9211248F939F9380910F01909110014E
:1005300001969093100180930F0180910F0190918B
:1005400010010C9771F41092100110920F0180911C
:100550000B0190910C018C599F4F90930C0180934B
:100560000B019F918F910F900FBE0F901F901895C8
:10057000959A85E38A95F1F700009598089592B3CE
:10058000907F92BB92B382958F70982B92BBF0DFD5
:100590000895CF93C82F949AF2DF8C2F8295807F95
:1005A000EEDF8AE78A95F1F700C0CF910895CF93E7
:1005B000C82F9498E4DF8C2F8295807FE0DF80E75E
:1005C0008A95F1F7CF91089581E0F1DF8FE99FE0FF
:1005D0000197F1F700C00000089581B38F6381BBDC
:1005E00082B3807C82BB8FE295E70197F1F700C070
:1005F000000080E3C4DF8FE097E20197F1F700C0CD
:100600000000B6DF8FEC97E00197F1F700C0000023
:10061000AFDF8FEC97E00197F1F700C0000080E2B8
:10062000AEDF8FE097E20197F1F700C0000088E2AB
:10063000BEDF8CE0BCDF86E0BADFC6DF089582E073
:10064000B6DF8FE99FE00197F1F700C00000089541
:10065000623059F018F4613071F405C0633039F03C
:10066000643049F406C0805805C0805403C08057E8
:1006700001C080539CDF0895CF93DF93EC01888104
:10068000882329F0219685DF89918111FCCFDF91A4
:10069000CF9108950F931F93CF93DF93062F172FBA
:1006A00028E0829FC0011124806481DFC02FD12FF8
:1006B00010E089916EDF1F5F1830D9F7DF91CF917D
:1006C0001F910F910895CF93DF93CDB7DEB7649755
:1006D0000FB6F894DEBF0FBECDBF42E050E0BE01C2
:1006E0006F5F7F4F08D1CE010196C6DF64960FB6CB
:1006F000F894DEBF0FBECDBFDF91CF91089564DFC8
:1007000083E890E0B9DF62E080E0A2DF84E990E076
:10071000B3DF089559DF84EA90E0AEDF61E08CE05A
:1007200097DF8CEA90E0A8DF08954EDF82EB90E03F
:10073000A3DF61E08AE08CDF87EB90E09DDF62E081
:1007400080E086DF8EEB90E097DF62E08AE080DF7A
:1007500083EC90E091DF089537DF89EC90E08CDF47
:1007600061E08AE075DF80ED90E086DF62E080E0A6
:100770006FDF86ED90E080DF62E08AE069DF8DED7B
:1007800090E07ADF089520DF81EE90E075DF62E08F
:1007900080E05EDF83EF90E06FDF0895CF93C82F96
:1007A00013DF8C2F90E08FDFCF9108950DDF8091C4
:1007B0000D01803119F482EB90E05EDF80910D0134
:1007C000813119F48BEF90E057DF80910D01823178
:1007D00019F48EEB90E050DF80910D01833119F414
:1007E00083EC90E049DF80910E01813031F462E0CA
:1007F00080E02EDF89EC90E03FDF80910E018230B7
:1008000031F462E080E024DF80ED90E035DF80911C
:100810000E01833031F462E080E01ADF86ED90E073
:100820002BDF80910E01843031F462E080E010DF34
:100830008DED90E021DF0895E89409C097FB3EF428
:1008400090958095709561957F4F8F4F9F4F99231D
:10085000A9F0F92F96E9BB279395F695879577959B
:100860006795B795F111F8CFFAF4BB0F11F460FF5B
:100870001BC06F5F7F4F8F4F9F4F16C0882311F0B3
:1008800096E911C0772321F09EE8872F762F05C0C7
:10089000662371F096E8862F70E060E02AF09A9562
:1008A000660F771F881FDAF7880F9695879597F957
:1008B0000895A1E21A2EAA1BBB1BFD010DC0AA1FA1
:1008C000BB1FEE1FFF1FA217B307E407F50720F0B9
:1008D000A21BB30BE40BF50B661F771F881F991F34
:1008E0001A9469F760957095809590959B01AC017D
:1008F000BD01CF010895FB019F01E8944230BCF097
:100900004532ACF44A3029F497FB1EF4909581955A
:100910009F4F642F77271ED0805D8A330CF0895D4E
:100920008193CB010097A9F716F45DE251931082F1
:10093000C90100C0DC01FC01672F71917723E1F749
:10094000329704C07C916D9370836291AE17BF079C
:10095000C8F30895AA1BBB1B51E107C0AA1FBB1F08
:10096000A617B70710F0A61BB70B881F991F5A953B
:10097000A9F780959095BC01CD010895F894FFCF1B
:10098000084D69736368656E3A20416C6B004E6F69
:100990006E2D416C6B00477574656E2044757273E3
:1009A000742100446572204D61736368696E65202F
:1009B000322E300053617566206E656920616C745B
:1009C000657221004D69736368656E0053657475C7
:1009D0007000436F6C61004F2D5361667400427567
:1009E0006C6C004C656D6F6E0041736261636800F2
:1009F000576F646B6100576869736B790052756D4E
:100A0000004D69736368756E67206D697420506F5F
:100A100074690045696E67616265004F2D73616698
:020A2000740060
:00000001FF
